:10000000C6C00000E2C00000E0C00000DEC000008A
:10001000DCC00000DAC00000D8C00000D6C000007C
:10002000D4C000006BC20000D0C00000CFC00000F0
:10003000CCC00000CAC00000C8C00000C6C000009C
:10004000C4C00000C2C00000C0C00000BEC00000AC
:10005000BCC00000BAC00000B8C00000B6C00000BC
:10006000B4C00000B2C00000B0C00000AEC00000CC
:10007000ACC00000AAC00000A8C00000A6C00000DC
:10008000A4C00000A2C00000A0C000006E616E000D
:10009000696E660000407A10F35A00A0724E18098B
:1000A0000010A5D4E80000E87648170000E40B54DF
:1000B000020000CA9A3B000000E1F50500008096AE
:1000C0009800000040420F000000A08601000000E0
:1000D000102700000000E80300000000640000009A
:1000E00000000A00000000000100000000002C7663
:1000F000D888DC674F0823DFC1DFAE59E1B1B7967E
:10010000E5E3E453C63AE651997696E8E6C28426DA
:10011000EB898C9B62ED407C6FFCEFBC9C9F40F2B6
:10012000BAA56FA5F490055A2AF75C936B6CF96732
:100130006DC11BFCE0E40D47FEF520E6B500D0EDF7
:10014000902E0300943577050080841E080000205F
:100150004E0A000000C80C333333330F986E1283FD
:100160001141EF8D2114893BE65516CFFEE6DB18D1
:10017000D1844B381BF77C1D901DA4BBE424203296
:1001800084725E228100C9F124ECA1E53D2711248F
:100190001FBECFEFD0E1DEBFCDBF11E0A0E0B1E0E8
:1001A000E8EFF1E100E00BBF02C007900D92A4312F
:1001B000B107D9F721E0A4E1B1E001C01D92AC364E
:1001C000B207E1F74ED00C94FA081ACF1F920F92A3
:1001D0000FB60F9211248F939F9380916501811127
:1001E0000DC086B597B5909367018093660181E055
:1001F000809365018EB58F7B8EBD10C080916501A7
:10020000813061F488EC90E09093690180936801FB
:1002100082E0809365018EB580648EBD9F918F9141
:100220000F900FBE0F901F9018951FBC8EB5846461
:100230008EBD87B7846287BF86B78C6386BF0895FB
:1002400087B78F7D87BF8C9A949A85E090E040D1E4
:1002500094988C9886B78C6386BF87B7806287BF77
:10026000089555D0E2DFC6E0D1E010926501F89420
:10027000E7DF7894809165018230E1F76091680151
:10028000709169018091660190916701681B790BFB
:100290007695679580E090E048D120E030E0A901B4
:1002A00081D19F938F937F936F93DF93CF9380D070
:1002B00088EC90E00DD10F900F900F900F900F9061
:1002C0000F90D3CFDE9A90E003D1DE988BB3807F7E
:1002D0008BBB0895CF93C82FDC988BB39C2F92953E
:1002E0009F70892B8BBB82E0EDDF8BB3CF70C82B67
:1002F000CBBB82E0E7DFDC9ACF91089581E0EADFB3
:1003000081E090E0E5C0089582E0E4CF08958FEFAA
:100310008ABB83E08BBBDE9A81E090E0D9D0DE9887
:1003200085E090E0D5D0DE9A81E090E0D1D0DE98F3
:10033000DE9A81E090E0CCD0DE9882E08BBB81E059
:10034000C1DF8BB38BBB81E0BDDF8BB38E608BBB1A
:1003500081E0B8DF8BB38BBB81E0B4DF8BB3866009
:100360008BBB81E0AFDF8BB38BBB81E0ABDFD89A77
:1003700081E0A8DFDC9AC8CF089580ECABCF089568
:1003800084E9A8CF089584EDA5CF0895CF93C82F11
:100390008BB39C2F92959F70892B8BBB81E092DF52
:1003A0008BB3CF70C82BCBBB81E08CDFCF9108958E
:1003B000CF92DF92EF92FF920F931F93CF93DF9331
:1003C000CDB7DEB7C155D1090FB6F894DEBF0FBE69
:1003D000CDBFFE01E45AFF4F419151919F0161E56C
:1003E00070E0CE01019670D6BE016F5F7F4F84E151
:1003F00091E01DD6892B09F43FC0BE016F5F7F4F8E
:1004000084E191E01DD67ADF9E012F5F3F4F6901A5
:1004100000E010E00F2EF4E1EF2EF12CF02D24C0BF
:100420008A3049F4C801B701F8D4F701E81BF90B89
:100430000E0F1F1F03C0AADF0F5F1F4FC801B701B8
:10044000ECD4892B89F4C801B701E7D46230710577
:1004500041F06330710539F06130710529F48DDFA9
:1004600003C08EDF01C08FDFF60181916F01882309
:1004700019F000351105A4F2CF5ADF4F0FB6F894EA
:10048000DEBF0FBECDBFDF91CF911F910F91FF90C7
:10049000EF90DF90CF90089510926B0110926A0157
:1004A000811106C08BE085BD87B7806887BF07C014
:1004B000813029F489E085BD87B7806887BF78944B
:1004C000089587B78F7787BF85B58F7785BD0895E6
:1004D000CF93DF93EC018AEF83BD10926B011092F2
:1004E0006A0180E0D9DF20916A0130916B012C17FD
:1004F0003D07C8F3E6DFDF91CF9108951F920F9279
:100500000FB60F9211248F939F9380916A0190915F
:100510006B01019690936B0180936A019F918F917B
:100520000F900FBE0F901F901895E89409C097FB8D
:100530003EF490958095709561957F4F8F4F9F4FBA
:100540009923A9F0F92F96E9BB279395F6958795FE
:1005500077956795B795F111F8CFFAF4BB0F11F4C1
:1005600060FF1BC06F5F7F4F8F4F9F4F16C0882368
:1005700011F096E911C0772321F09EE8872F762F9E
:1005800005C0662371F096E8862F70E060E02AF0DF
:100590009A95660F771F881FDAF7880F96958795CB
:1005A00097F908950BD078C069D028F06ED018F074
:1005B000952309F05AC05FC01124A2C07ED0A0F3D9
:1005C000959FD1F3950F50E0551F629FF001729FE8
:1005D000BB27F00DB11D639FAA27F00DB11DAA1F07
:1005E000649F6627B00DA11D661F829F2227B00D54
:1005F000A11D621F739FB00DA11D621F839FA00DDF
:10060000611D221F749F3327A00D611D231F849F2E
:10061000600D211D822F762F6A2F11249F57504085
:100620008AF0E1F088234AF0EE0FFF1FBB1F661F20
:10063000771F881F91505040A9F79E3F510570F0D9
:1006400014C05EC05F3FECF3983EDCF3869577956F
:100650006795B795F795E7959F5FC1F7FE2B880FD4
:10066000911D9695879597F9089597F99F6780E86A
:1006700070E060E008959FEF80EC089500240A94F4
:100680001616170618060906089500240A9412166D
:100690001306140605060895092E0394000C11F4A0
:1006A000882352F0BB0F40F4BF2B11F460FF04C04D
:1006B0006F5F7F4F8F4F9F4F089557FD9058440FA6
:1006C000551F59F05F3F71F04795880F97FB991FB1
:1006D00061F09F3F79F0879508951216130614066E
:1006E000551FF2CF4695F1DF08C0161617061806FB
:1006F000991FF1CF86957105610508940895E894D6
:10070000BB2766277727CB0197F908952F923F9251
:100710004F925F926F927F928F929F92AF92BF9211
:10072000CF92DF92EF92FF920F931F93CF93DF93BD
:10073000CDB7DEB763970FB6F894DEBF0FBECDBF5F
:100740007C011B016A01FC0117821682838181FFF3
:1007500049C3BE016F5F7F4F4B01F7019381F101E8
:1007600093FD859193FF81911F01882309F436C37E
:10077000853239F493FD859193FF81911F01853274
:1007800031F4B70190E06ED456016501E6CF10E078
:10079000512C20E02032A0F48B3269F030F480320A
:1007A00059F0833269F420612CC08D3239F08033E6
:1007B00039F4216026C02260246023C0286021C053
:1007C00027FD27C030ED380F3A3078F426FF06C0F9
:1007D000FAE01F9F300D1124132F13C06AE0569EBC
:1007E000300D1124532E20620CC08E3221F426FDD0
:1007F000F5C2206406C08C3611F4206802C0883629
:1008000041F4F10193FD859193FF81911F018111C5
:10081000C1CF9BEB980F933018F42061805E06C027
:100820009BE9980F933008F09AC12F7E26FF16E0BF
:100830002F73722E853621F4F22FF0647F2E08C0BC
:10084000863621F4622F6068762E02C01111115095
:1008500077FE07C01C3348F444244394410E27E03C
:100860000BC0183030F4212F06C027E04CE3442E93
:1008700003C027E017E0412C560174E0A70EB11C1D
:10088000F6016081718182819381042DA401ECD2F3
:100890006C01098100FF02C003FF06C071FC07C0A4
:1008A00072FC08C0612C08C03DE2632E05C02BE23B
:1008B000622E02C090E2692E802F8C7081F166203A
:1008C00011F084E001C083E0851510F0512C0AC0BE
:1008D000581A73FC07C0B70180E290E0C3D35A9462
:1008E000D1F7F4CF662021F0B701862D90E0BAD37E
:1008F00003FD03C000E910E002C00CE810E0F72D92
:10090000F0717F2EF8018491882309F45EC2711082
:100910008052B70190E0A6D30F5F1F4FF3CF77FE51
:100920000FC04C0C04FF04C08A81813309F44A943F
:10093000141474F5F8E0F41578F588E0482E2CC00E
:1009400076FC2AC0812F90E08C159D059CF06CEF01
:10095000C6166FEFD60674F0772D7068772E0AC032
:10096000E2E0F0E0EC0FFD1FE10FF11D808180332C
:1009700019F411501111F4CF77FE0EC044244394A2
:10098000410E812F90E0C816D9062CF41C1904C022
:100990004424439401C010E077FE07C01C141D04DA
:1009A0003CF496012F5F3F4F05C025E030E002C0C8
:1009B00021E030E0662011F02F5F3F4F112331F02E
:1009C000412F50E04F5F5F4F240F351F452D50E002
:1009D0002417350714F4521A01C0512C872D897041
:1009E00041F4552031F0B70180E290E03BD35A94B6
:1009F000F8CF662021F0B701862D90E033D373FC49
:100A000008C0552031F0B70180E390E02BD35A9411
:100A1000F8CF77FE5DC09C2D8D2DD7FE02C090E0F3
:100A200080E0692E782E40E050E0C60184199109DB
:100A30009D878C87960126193709280D391D812F2E
:100A400090E0EE27FF27E81BF90BFF87EE87FFEF0B
:100A50006F167F0661F4B7018EE290E02B8B3A8B24
:100A6000488B598BFFD2598948893A892B89C614FA
:100A7000D70454F06C857D85661577052CF4F90153
:100A8000E40FF51F818101C080E371E0671A7108EE
:100A90004F5F5F4FEE85FF856E167F0664F0B701EE
:100AA00090E02B8B3A8B488B598BDCD22B893A897F
:100AB00048895989CCCF6C147D0439F49A819633D6
:100AC00018F4953311F404FF81E3B70190E045C0B9
:100AD0008A81813309F00F7EB70190E0C3D21111F2
:100AE00005C074FE16C085E490E015C0B7018EE223
:100AF00090E0B8D282E066246394680EF401E80FB7
:100B0000F11D8081B70190E0ADD2115051F3862DD7
:100B1000F2CF85E690E0B701A5D2D7FC05C0C1149D
:100B2000D10439F404FF05C0D194C194D1088DE2F9
:100B300001C08BE2B70190E095D280E36AE0C6166F
:100B4000D1042CF08F5FFAE0CF1AD108F7CFB701AC
:100B500090E088D2B701C601C09684D236C18336F0
:100B600031F0833779F0833509F054C020C0560145
:100B700072E0A70EB11CF6018081898301E010E0CC
:100B8000640113C05601F2E0AF0EB11CF601C08043
:100B9000D18026FF03C0612F70E002C06FEF7FEFAE
:100BA000C6012B8B54D28C012B892F7714C0560190
:100BB000F2E0AF0EB11CF601C080D18026FF03C069
:100BC000612F70E002C06FEF7FEFC6012B8B24D244
:100BD0008C012B892068722E23FD18C0852D90E092
:100BE0000817190798F4B70180E290E03BD25A94B5
:100BF000F5CFF60177FC859177FE81916F01B70102
:100C000090E030D251105A9401501109011511058C
:100C100081F7DBC0843611F0893649F5560127FF8C
:100C200009C0F4E0AF0EB11CF601608171818281D0
:100C300093810AC0F2E0AF0EB11CF60160817181B0
:100C4000882777FD8095982F022F0F7697FF08C091
:100C500090958095709561957F4F8F4F9F4F00685D
:100C60002AE030E0A40168D2C82EC8183DC0022F87
:100C7000853721F40F7E2AE030E01DC0097F8F36D2
:100C800091F018F4883559F0A9C0803719F08837E9
:100C900011F0A4C0006104FF09C0046007C024FF74
:100CA00008C0066006C028E030E005C020E130E062
:100CB00002C020E132E0560107FF09C0F4E0AF0EA8
:100CC000B11CF601608171818281938108C0F2E0DC
:100CD000AF0EB11CF6016081718180E090E0A4014B
:100CE0002BD2C82EC8180F7706FF0BC0202F2E7FDF
:100CF000C11650F404FF0AC002FD08C0202F2E7E4A
:100D000005C0DC2C202F03C0DC2C01C0D12E24FF19
:100D10000DC0FE01EC0DF11D8081803311F4297EA0
:100D200009C022FF06C0D394D39404C0822F8678D2
:100D300009F0D39423FD12C020FF06C01C2DD5144A
:100D400018F4150D1D19D52CD51460F4B70180E2E7
:100D500090E02B8B87D1D3942B89F6CFD51410F448
:100D60005D1801C0512C24FF11C0B70180E390E051
:100D70002B8B78D12B8922FF16C021FF03C088E579
:100D800090E002C088E790E0B7010CC0822F86781F
:100D900051F021FD02C080E201C08BE227FD8DE20F
:100DA000B70190E05FD1C11630F4B70180E390E065
:100DB00059D11150F8CFCA94F401EC0DF11D808186
:100DC000B70190E04FD1C110F6CF552009F4DDCC2A
:100DD000B70180E290E046D15A94F7CFF7018681BF
:100DE000978102C08FEF9FEF63960FB6F894DEBF36
:100DF0000FBECDBFDF91CF911F910F91FF90EF906C
:100E0000DF90CF90BF90AF909F908F907F906F902A
:100E10005F904F903F902F90089597FB072E16F408
:100E2000009406D077FD08D00BD007FC05D03EF427
:100E3000909581959F4F0895709561957F4F089586
:100E4000AA1BBB1B51E107C0AA1FBB1FA617B707F0
:100E500010F0A61BB70B881F991F5A95A9F780950C
:100E60009095BC01CD010895283008F027E0332784
:100E7000DA01990F311D87FD9160009661057105BA
:100E800039F432602E5F3D9330E32A95E1F70895FF
:100E90009F3F30F080387105610509F03C5F3C5F91
:100EA0003D93913008F08068911DDF93CF931F939D
:100EB0000F93FF92EF92192F987F9695E92F9695B1
:100EC0009695E90FFF27E251FF4F99273327EE242C
:100ED000FF24A701E70105900894079428F4360F32
:100EE000E71EF81E491F511D660F771F881F991FA7
:100EF0000694A1F70590079428F4E70EF81E491F01
:100F0000561FC11D770F881F991F661F0694A1F7F2
:100F10000590079428F4F80E491F561FC71FD11DCE
:100F2000880F991F661F771F0694A1F705900794F5
:100F300020F4490F561FC71FD81F990F661F771F30
:100F4000881F0694A9F784911095177041F0D695E3
:100F5000C79557954795F794E7941A95C1F7E4E933
:100F6000F0E06894159015913591659195910590F3
:100F70007FE27395E118F10A430B560BC90BD009B8
:100F8000C0F7E10CF11E431F561FC91FD01D7EF490
:100F9000703311F48A95E6CFE894015030F0080FD1
:100FA0000AF40027021708F4202F2395022F7A3322
:100FB00028F079E37D932A95E9F710C07D932A956F
:100FC00089F6069497956795379517951794E118C4
:100FD000F10A430B560BC90BD00998F023957E916B
:100FE00073957A3308F070E37C932013B8F77E9101
:100FF00070617D9330F0839571E37D9370E32A9562
:10100000E1F71124EF90FF900F911F91CF91DF91A5
:10101000992787FD90950895FC01059061507040D7
:101020000110D8F7809590958E0F9F1F0895FB01B2
:10103000DC018D91019080190110D9F3990B08956D
:10104000FB01DC0101900D920020E1F70895FC0105
:101050006150704001900110D8F7809590958E0FE7
:101060009F1F08950F931F93CF93DF93182F092F7E
:10107000EB018B8181FD03C08FEF9FEF20C082FFCA
:1010800010C04E815F812C813D81421753077CF453
:10109000E881F9819F012F5F3F4F398328831083B7
:1010A00006C0E885F985812F0995892B29F72E81BE
:1010B0003F812F5F3F4F3F832E83812F902FDF9102
:1010C000CF911F910F9108950F931F93CF93DF93AB
:1010D000CDB7DEB72E970FB6F894DEBF0FBECDBFEB
:1010E0008C01CA0146E04C831A83098377FF02C052
:1010F00060E070E8615071097E836D83A901BC01D5
:10110000CE01019603DB4D815E8157FD0AC02F8120
:101110003885421753070CF49A01F801E20FF31FC8
:1011200010822E960FB6F894DEBF0FBECDBFDF91B2
:10113000CF911F910F910895FA01AA27283051F1FC
:10114000203181F1E8946F936E7F6E5F7F4F8F4FF8
:101150009F4FAF4FB1E03ED0B4E03CD0670F781F57
:10116000891F9A1FA11D680F791F8A1F911DA11D3C
:101170006A0F711D811D911DA11D20D009F4689475
:101180003F912AE0269F11243019305D3193DEF61D
:10119000CF010895462F4770405D4193B3E00FD0D3
:1011A000C9F7F6CF462F4F70405D4A3318F0495DBE
:1011B00031FD4052419302D0A9F7EACFB4E0A695A1
:1011C0009795879577956795BA95C9F700976105C3
:1011D000710508959B01AC010A2E06945795479519
:1011E00037952795BA95C9F7620F731F841F951F0E
:0811F000A01D0895F894FFCF43
:1011F80000006C01200044697374616E63653A20D5
:041208002564000059
:00000001FF
