S010000070726F67656374312E73726563EF
S113000045C0000060C000005EC000005CC000008D
S11300105AC0000058C0000056C0000054C0000080
S113002052C000008CC100004EC000004CC0000053
S11300304AC0000048C0000046C0000044C00000A0
S113004042C0000040C000003EC000003CC00000B0
S11300503AC0000038C0000036C0000034C00000C0
S113006032C0000030C000002EC000002CC00000D0
S11300702AC0000028C0000026C0000024C00000E0
S113008022C0000020C000001EC0000011241FBEBA
S1130090CFEFD0E1DEBFCDBF11E0A0E0B1E0E0E7FB
S11300A0F3E000E00BBF02C007900D92A432B10749
S11300B0D9F721E0A4E2B1E001C01D92A632B20753
S11300C0E1F702D053C19CCFCF93DF93CDB7DEB716
S11300D0E8970FB6F894DEBF0FBECDBF93D083E28E
S11300E0E0E0F1E0DE01119601900D928A95E1F7CE
S11300F018AEE12CF12CCE0101966C01712C812CEF
S11301006894992495F855245394612C0F2EF3E1A7
S1130110AF2EB12CF02D8E01085C1F4F3AC0F501B3
S1130120EE19FF0912F4E72DF82D1E161F060CF424
S11301303FC0E72DF82D0AC09D9201968E179F07A8
S1130140DCF31E161F0614F0E52DF62D95E1E916D5
S1130150F1041CF0D701549702C0A72DB82DE43147
S1130160F1056CF4AC0DBD1D84E290E08C0F9D1F75
S1130170E80FF91F8D918193E017F107D9F739D072
S1130180CE01849687D08CE291E0C3D09FEFE91A28
S1130190F90AF60101900020E9F7CF018C199D09B5
S11301A042968E159F0508F0BACFF501E72CF82C7E
S11301B0DE019496872D982DBFCFDE9A90E0A9D0CA
S11301C0DE988BB3807F8BBB0895CF93C82FDC98C8
S11301D08BB39C2F92959F70892B8BBB82E0EDDFB4
S11301E08BB3CF70C82BCBBB82E0E7DFDC9ACF9117
S11301F0089581E0EADF81E090E08BC0089582E019
S1130200E4CF08958FEF8ABB83E08BBBDE9A81E055
S113021090E07FD0DE9885E090E07BD0DE9A81E0AC
S113022090E077D0DE98DE9A81E090E072D0DE989C
S113023082E08BBB81E0C1DF8BB38BBB81E0BDDF90
S11302408BB38E608BBB81E0B8DF8BB38BBB81E05B
S1130250B4DF8BB386608BBB81E0AFDF8BB38BBB2A
S113026081E0ABDFD89A81E0A8DFDC9AC8CF08959B
S1130270CF93C82F8BB39C2F92959F70892B8BBBE8
S113028081E09BDF8BB3CF70C82BCBBB81E095DFC4
S1130290CF910895EF92FF920F931F93CF93DF9323
S11302A0FC0101900020E9F731977F01E81AF90A6F
S11302B01E141F045CF48C01C0E0D0E0F8018191AD
S11302C08F01D6DF2196EC16FD06C1F7DF91CF91A1
S11302D01F910F91FF90EF900895109225011092B5
S11302E02401811106C08BE085BD87B7806887BF74
S11302F007C0813029F489E085BD87B7806887BF4E
S11303007894089587B78F7787BF85B58F7785BD34
S11303100895CF93DF93EC018AEF83BD10922501FA
S11303201092240180E0D9DF20912401309125012D
S11303302C173D07C8F3E6DFDF91CF9108951F9294
S11303400F920FB60F9211248F939F9380912401E3
S113035090912501019690932501809324019F910A
S11303608F910F900FBE0F901F901895F894FFCFA8
S11303704D6963726F636F6E74726F6C6C657273C8
S113038020617265206C6F7473206F662066756ED1
S10703902120000024
S9030000FC
