S01700004763634170706C69636174696F6E312E737265635B
S113000086C00000A1C000009FC000009DC0000089
S11300109BC0000099C0000097C0000095C000007C
S113002093C00000E9C100008FC000008DC0000033
S11300308BC0000089C0000087C0000085C000009C
S113004083C0000081C000007FC000007DC00000AC
S11300507BC0000079C0000077C0000075C00000BC
S113006073C0000071C000006FC000006DC00000CC
S11300706BC0000069C0000067C0000065C00000DC
S113008063C0000061C000005FC000000763423627
S1130090B79BD8A71A39685618AEBAAB558C1D3C15
S11300A0B7CC5763BD6DEDFD753EF6177231BF00D9
S11300B00000803F08000000BE922449123EABAA13
S11300C0AA2ABECDCCCC4C3E00000080BEABAAAA6E
S11300D0AA3E00000000BF000000803F00000000B6
S11300E000084178D3BB4387D1133D190E3CC3BDEF
S11300F04282AD2B3E68EC8276BED98FE1A93E4C9C
S113010080EFFFBE01C4FF7F3F0000000000112408
S11301101FBECFEFD0E1DEBFCDBF11E0A0E0B1E064
S1130120E6E7F0E100E00BBF02C007900D92AC31AE
S1130130B107D9F721E0ACE1B1E001C01D92AF36BF
S1130140B207E1F707D095C75BCF87EC86B982E4A5
S113015087B908955AD0F9DF00E011E0F6DF369947
S1130160FECFC4B1D5B1DD27BE01882777FD8095C8
S1130170982F5BD129EE34EE4EE250EC91D19B01E5
S1130180AC0166EB73EF8DE290E4EDD129ED3EE135
S11301904DE250E485D19F938F937F936F93DF93C8
S11301A0CF931F930F9382D084E190E00FD18DB74A
S11301B09EB708960FB6F8949EBF0FBE8DBFCECFE4
S11301C0DE9A90E003D1DE988BB3807F8BBB0895D9
S11301D0CF93C82FDC988BB39C2F92959F70892B5B
S11301E08BBB82E0EDDF8BB3CF70C82BCBBB82E03F
S11301F0E7DFDC9ACF91089581E0EADF81E090E0C7
S1130200E5C0089582E0E4CF08958FEF8ABB83E0D0
S11302108BBBDE9A81E090E0D9D0DE9885E090E057
S1130220D5D0DE9A81E090E0D1D0DE98DE9A81E0EC
S113023090E0CCD0DE9882E08BBB81E0C1DF8BB351
S11302408BBB81E0BDDF8BB38E608BBB81E0B8DFFD
S11302508BB38BBB81E0B4DF8BB386608BBB81E057
S1130260AFDF8BB38BBB81E0ABDFD89A81E0A8DF33
S1130270DC9AC8CF089580ECABCF089584E9A8CF69
S1130280089584EDA5CF0895CF93C82F8BB39C2FE9
S113029092959F70892B8BBB81E092DF8BB3CF70DB
S11302A0C82BCBBB81E08CDFCF910895CF92DF9236
S11302B0EF92FF920F931F93CF93DF93CDB7DEB7E7
S11302C0C155D1090FB6F894DEBF0FBECDBFFE01F4
S11302D0E45AFF4F419151919F0161E570E0CE01D5
S11302E00196FBD3BE016F5F7F4F8CE191E0E5D3B4
S11302F0892B09F43FC0BE016F5F7F4F8CE191E011
S1130300E5D37ADF9E012F5F3F4F690100E010E0E3
S11303100F2EF4E1EF2EF12CF02D24C08A3049F495
S1130320C801B701A3D3F701E81BF90B0E0F1F1F78
S113033003C0AADF0F5F1F4FC801B70197D3892BF2
S113034089F4C801B70192D36230710541F063307A
S1130350710539F06130710529F48DDF03C08EDF3A
S113036001C08FDFF60181916F01882319F00035F8
S11303701105A4F2CF5ADF4F0FB6F894DEBF0FBEBB
S1130380CDBFDF91CF911F910F91FF90EF90DF9040
S1130390CF90089510926E0110926D01811106C0E4
S11303A08BE085BD87B7806887BF07C0813029F49B
S11303B089E085BD87B7806887BF7894089587B73B
S11303C08F7787BF85B58F7785BD0895CF93DF93EA
S11303D0EC018AEF83BD10926E0110926D0180E0F2
S11303E0D9DF20916D0130916E012C173D07C8F3C0
S11303F0E6DFDF91CF9108951F920F920FB60F920F
S113040011248F939F9380916D0190916E010196B9
S113041090936E0180936D019F918F910F900FBE09
S11304200F901F901895E89409C097FB3EF490959F
S11304308095709561957F4F8F4F9F4F9923A9F0B9
S1130440F92F96E9BB279395F69587957795679548
S1130450B795F111F8CFFAF4BB0F11F460FF1BC08C
S11304606F5F7F4F8F4F9F4F16C0882311F096E91F
S113047011C0772321F09EE8872F762F05C06623CD
S113048071F096E8862F70E060E02AF09A95660F86
S1130490771F881FDAF7880F9695879597F908953F
S11304A00BD01AC10BD128F010D118F0952309F004
S11304B0D7C0DCC0112444C120D1A0F3959FD1F34F
S11304C0950F50E0551F629FF001729FBB27F00DFE
S11304D0B11D639FAA27F00DB11DAA1F649F662753
S11304E0B00DA11D661F829F2227B00DA11D621FA2
S11304F0739FB00DA11D621F839FA00D611D221F5C
S1130500749F3327A00D611D231F849F600D211D3F
S1130510822F762F6A2F11249F5750408AF0E1F0E2
S113052088234AF0EE0FFF1FBB1F661F771F881F2B
S113053091505040A9F79E3F510570F091C000C101
S11305405F3FECF3983EDCF3869577956795B79516
S1130550F795E7959F5FC1F7FE2B880F911D969540
S1130560879597F90895FA01EE0FFF1F309621053C
S1130570310599F16115710561F48038BFE39B077A
S113058049F168949038810561F08038BFEF9B078A
S113059041F0992342F5FF3FE1053105210511F1B1
S11305A0E8940894E795D901AA2329F4AB2FBE2F28
S11305B0F85FD0F310C0FF5F70F4A695E0F7F73949
S11305C050F019F0FF3A38F49F779F930CD00F90B6
S11305D007FC905808953EF049C060E070E080E860
S11305E09FE308954FE79F775F934F933F932F9334
S11305F0EFD02F913F914F915F9152DF05C019F4D5
S11306000EF02EC09CC032C080D0C8F39638C0F71C
S113061007F80F92E8942BE33AEA48EB5FE74EDFE2
S11306200F920F920F924DB75EB70F9211D1ECE873
S1130630F0E01FD04F915F91EF91FF91E595EE1F90
S1130640FF1F49F0FE57E0684427EE0F441FFA9558
S1130650E1F74195550B83D00F9007FE77C00895BD
S113066097F99F6780E870E060E008959FEF80EC61
S11306700895DF93CF931F930F93FF92EF92DF922E
S11306807B018C01689405C0DA2EEF0115DFFE01B1
S1130690E894A5912591359145915591AEF3EF01DB
S11306A01CD1FE019701A801DA9479F7DF90EF904D
S11306B0FF900F911F91CF91DF91089500240A9428
S11306C01616170618060906089500240A94121629
S11306D01306140605060895092E0394000C11F45C
S11306E0882352F0BB0F40F4BF2B11F460FF04C009
S11306F06F5F7F4F8F4F9F4F089557FD9058440F62
S1130700551F59F05F3F71F04795880F97FB991F6C
S113071061F09F3F79F08795089512161306140629
S1130720551FF2CF4695F1DF08C0161617061806B6
S1130730991FF1CF86957105610508940895E89491
S1130740BB2766277727CB0197F908959B01AC0156
S113075060E070E080E89FE313C182CF79C1D5DF08
S1130760E8F39923D9F3940F511DBBF391505040F2
S113077094F059F0882332F0660F771F881F915048
S11307805040C1F79E3F510544F7880F911D96953F
S1130790879597F908955F3FACF0983E9CF0BB278E
S11307A0869577956795B79508F4B1609395C1F7E9
S11307B0BB0F58F711F460FFE8CF6F5F7F4F8F4F87
S11307C09F4FE3CFBDCF0EF043C150CF689448CFC5
S11307D09CDFC8F39923D1F3C6F3DF93CF931F9320
S11307E00F93FF92C92FDD2788232AF02197660FE4
S11307F0771F881FDAF720E030E040E85FEB9FE3E3
S1130800883920F0803E30F021968F7755D0E4EB84
S1130810F0E003C051D0E1EEF0E02BDF8B01BE012C
S1130820EC01FB2E6F5771097595771F880B990B97
S1130830FCDD28E132E741E35FE33EDEAF2D9801C2
S1130840AE01FF900F911F91CF91DF9146D044CF1D
S1130850FA01DC01AA0FBB1F9B01AC01BF5728F4AE
S113086022273327442750781FC0B75188F4AB2F71
S11308700024469537952795011CA395D2F30020B3
S113088069F0220F331F441FB395DAF30DD013C060
S113089061307105A0E88A07B94630F49B01AC01C8
S11308A06627772788279078309621F02083318334
S11308B04283538308955058BB27AA270ED00CCFE8
S11308C0FDDE30F002DF20F031F49F3F11F41EF41E
S11308D0CDCE0EF4E095E7FBC3CEE92F0EDF80F317
S11308E0BA17620773078407950718F071F49EF529
S11308F026CF0EF4E0950B2EBA2FA02D0B01B901D3
S113090090010C01CA01A0011124FF27591B99F081
S1130910593F50F4503E68F11A16F040A22F232F8D
S1130920342F4427585FF3CF469537952795A795DD
S1130930F0405395C9F77EF41F16BA0B620B730B84
S1130940840BBAF09150A1F0FF0FBB1F661F771FF5
S1130950881FC2F70EC0BA0F621F731F841F48F4AA
S1130960879577956795B795F7959E3F08F0B3CF30
S11309709395880F08F09927EE0F9795879508951A
S11309800CD0AACEA2DE40F099DE30F021F45F3F15
S113099019F066CE5111D4CE69CEAFDE98F3992307
S11309A0C9F35523B1F3951B550BBB27AA2762172F
S11309B07307840738F09F5F5F4F220F331F441F74
S11309C0AA1FA9F333D00E2E3AF0E0E830D09150AC
S11309D05040E695001CCAF729D0FE2F27D0660F99
S11309E0771F881FBB1F261737074807AB07B0E8D8
S11309F009F0BB0B802DBF01FF2793585F4F2AF0EE
S1130A009E3F510568F02CCE9BCE5F3FECF3983EA1
S1130A10DCF3869577956795B795F7959F5FC9F74A
S1130A20880F911D9695879597F90895E1E0660FD3
S1130A30771F881FBB1F621773078407BA0720F04C
S1130A40621B730B840BBA0BEE1F88F7E0950895B5
S1130A509F3F31F0915020F4879577956795B7952E
S1130A60880F911D9695879597F9089597FB072E02
S1130A7016F4009406D077FD08D00BD007FC05D0FF
S1130A803EF4909581959F4F0895709561957F4FA1
S1130A900895AA1BBB1B51E107C0AA1FBB1FA617C1
S1130AA0B70710F0A61BB70B881F991F5A95A9F713
S1130AB080959095BC01CD010895FB01DC018D91D9
S1130AC0019080190110D9F3990B0895FB01DC0101
S1130AD001900D920020E1F708950F931F93CF9397
S1130AE0DF93CDB7DEB72E970FB6F894DEBF0FBEF7
S1130AF0CDBF8C01CA0146E04C831A83098377FF7A
S1130B0002C060E070E8615071097E836D83A901C1
S1130B10BC01CE01019619D04D815E8157FD0AC0FA
S1130B202F813885421753070CF49A01F801E20F1C
S1130B30F31F10822E960FB6F894DEBF0FBECDBF02
S1130B40DF91CF911F910F9108952F923F924F9271
S1130B505F926F927F928F929F92AF92BF92CF9249
S1130B60DF92EF92FF920F931F93CF93DF93CDB752
S1130B70DEB72C970FB6F894DEBF0FBECDBF7C0155
S1130B806B018A01FC0117821682838181FFB0C147
S1130B90CE0101964C01F7019381F60193FD8591F5
S1130BA093FF81916F01882309F49EC1853239F442
S1130BB093FD859193FF81916F01853221F4B701F3
S1130BC090E0C7D1E8CF512C312C20E02032A0F4A2
S1130BD08B3269F030F4803259F0833269F4206149
S1130BE02CC08D3239F0803339F4216026C0226064
S1130BF0246023C0286021C027FD27C030ED380FB2
S1130C003A3078F426FF06C0FAE05F9E300D1124D6
S1130C10532E13C08AE0389E300D1124332E2062E7
S1130C200CC08E3221F426FD5FC1206406C08C36D0
S1130C3011F4206802C0883641F4F60193FD8591D1
S1130C4093FF81916F018111C1CF982F9F7D95549E
S1130C50933028F40C5F1F4FFFE3F9830DC08336F4
S1130C6031F0833771F0833509F057C021C0F801A2
S1130C70808189830E5F1F4F44244394512C540177
S1130C8014C03801F2E06F0E711CF801A080B1802D
S1130C9026FF03C0652D70E002C06FEF7FEFC50132
S1130CA02C874CD12C0183012C852F77222E16C042
S1130CB03801F2E06F0E711CF801A080B18026FFAC
S1130CC003C0652D70E002C06FEF7FEFC5012C8774
S1130CD02AD12C012C852068222E830123FC19C0E3
S1130CE0832D90E048165906A0F4B70180E290E005
S1130CF030D13A94F5CFF50127FC859127FE8191F7
S1130D005F01B70190E025D131103A94F1E04F1A18
S1130D1051084114510479F7DEC0843611F0893644
S1130D2031F5F80127FF07C06081718182819381C9
S1130D300C5F1F4F08C060817181882777FD809503
S1130D40982F0E5F1F4F2F76B22E97FF09C09095F4
S1130D508095709561957F4F8F4F9F4F2068B22E7D
S1130D602AE030E0A40127D1A82EA81843C0853773
S1130D7029F42F7EB22E2AE030E025C0F22FF97F2D
S1130D80BF2E8F36C1F018F4883579F0ADC08037A6
S1130D9019F0883721F0A8C02F2F2061B22EB4FE9D
S1130DA00DC08B2D8460B82E09C024FF0AC09F2F6C
S1130DB09660B92E06C028E030E005C020E130E09E
S1130DC002C020E132E0F801B7FE07C06081718102
S1130DD0828193810C5F1F4F06C06081718180E026
S1130DE090E00E5F1F4FA401E6D0A82EA818FB2D9B
S1130DF0FF77BF2EB6FE0BC02B2D2E7FA51450F40B
S1130E00B4FE0AC0B2FC08C02B2D2E7E05C07A2C7D
S1130E102B2D03C07A2C01C0752C24FF0DC0FE01BC
S1130E20EA0DF11D8081803311F4297E09C022FF6F
S1130E3006C07394739404C0822F867809F0739467
S1130E4023FD12C020FF06C05A2C731418F4530C4F
S1130E505718732C731460F4B70180E290E02C8768
S1130E6078D073942C85F6CF731410F4371801C01E
S1130E70312C24FF11C0B70180E390E02C8769D0A6
S1130E802C8522FF16C021FF03C088E590E002C034
S1130E9088E790E0B7010CC0822F867851F021FDDD
S1130EA002C080E201C08BE227FD8DE2B70190E031
S1130EB050D0A51430F4B70180E390E04AD05A949E
S1130EC0F8CFAA94F401EA0DF11D8081B70190E0F6
S1130ED040D0A110F6CF332009F45DCEB70180E2F3
S1130EE090E037D03A94F7CFF7018681978102C01A
S1130EF08FEF9FEF2C960FB6F894DEBF0FBECDBFD9
S1130F00DF91CF911F910F91FF90EF90DF90CF90E1
S1130F10BF90AF909F908F907F906F905F904F9015
S1130F203F902F900895FC0105906150704001108E
S1130F30D8F7809590958E0F9F1F0895FC016150FE
S1130F40704001900110D8F7809590958E0F9F1FE7
S1130F5008950F931F93CF93DF93182F092FEB015D
S1130F608B8181FD03C08FEF9FEF20C082FF10C0F3
S1130F704E815F812C813D81421753077CF4E881C7
S1130F80F9819F012F5F3F4F39832883108306C067
S1130F90E885F985812F0995892B29F72E813F81D1
S1130FA02F5F3F4F3F832E83812F902FDF91CF916F
S1130FB01F910F910895FA01AA27283051F1203189
S1130FC081F1E8946F936E7F6E5F7F4F8F4F9F4FD9
S1130FD0AF4FB1E03ED0B4E03CD0670F781F891F1B
S1130FE09A1FA11D680F791F8A1F911DA11D6A0FE9
S1130FF0711D811D911DA11D20D009F468943F919C
S11310002AE0269F11243019305D3193DEF6CF019A
S11310100895462F4770405D4193B3E00FD0C9F760
S1131020F6CF462F4F70405D4A3318F0495D31FDCD
S11310304052419302D0A9F7EACFB4E0A695979520
S1131040879577956795BA95C9F7009761057105F6
S113105008959B01AC010A2E069457954795379540
S11310602795BA95C9F7620F731F841F951FA01D9A
S10910700895F894FFCF7F
S11310765175616E742056616C2025640A2044699A
S10F10867374616E63653A2025640000F9
S9030000FC
