:1000000045C0000060C000005EC000005CC0000091
:100010005AC0000058C0000056C0000054C0000084
:1000200052C0000057C300004EC000004CC000008A
:1000300062C0000048C0000046C0000044C000008C
:1000400042C0000040C000003EC000003CC00000B4
:100050003AC0000038C0000036C0000034C00000C4
:1000600032C0000030C0000050C000002CC00000B2
:100070002AC0000028C0000026C0000024C00000E4
:1000800022C0000020C000001EC0000011241FBEBE
:10009000CFEFD0E1DEBFCDBF11E0A0E0B1E0EAE4F8
:1000A000FDE000E00BBF02C007900D92A631B10742
:1000B000D9F721E0A6E1B1E001C01D92A936B2074F
:1000C000E1F759D140C69CCF1FBC3DE03EBD88E062
:1000D0009DE39BBD8ABD20E127BF10928B0030932A
:1000E0008A0084E39CE090938700809386002093AD
:1000F0007D00789408951F920F920FB60F921124ED
:100100000F900FBE0F901F9018951F920F920FB671
:100110000F9211240F900FBE0F901F9018958330EF
:1001200071F130F4813009F440C0823099F147C058
:10013000853079F0C8F0863009F041C02091040183
:10014000309105012F5F3F4F30930501209304014B
:1001500036C02091040130910501215031093093BE
:100160000501209304012BC020910201309103016D
:100170002F5F3F4F309303012093020120C0209155
:100180000201309103012150310930930301209382
:10019000020115C020910001309101012F5F3F4FF6
:1001A00030930101209300010AC020910001309199
:1001B0000101215031093093010120930001209168
:1001C00004013091050127313105D1F4209102015C
:1001D000309103012B33310599F4209100013091C6
:1001E00001012C33310561F41092050110920401D4
:1001F000109203011092020110920101109200016D
:1002000020910401309105012831310559F48630DF
:1002100049F41092050110920401209104013091DB
:1002200005010FC020910401309105012F3F3F4F80
:1002300041F4853031F427E130E03093050120931B
:1002400004012091040130910501332334F427E1A6
:1002500030E0309305012093040120910201309198
:1002600003012C33310521F5843049F41092030148
:1002700010920201209102013091030128C02091C7
:100280000001309101012C33310591F410920301EA
:100290001092020120910401309105012F5F3F4F20
:1002A0003093050120930401109201011092000186
:1002B00020910201309103012F3F3F4F41F48330E1
:1002C00031F42BE330E030930301209302012091BD
:1002D000020130910301332334F42BE330E03093F7
:1002E00003012093020120910001309101012C3380
:1002F0003105C9F4823049F41092010110920001D5
:1003000080910001909101011CC020910201309167
:1003100003012F5F3F4F309303012093020110929E
:100320000101109200012091000130910101232B65
:1003300041F4813031F48BE390E09093010180939C
:1003400000018091000190910101992334F48BE325
:1003500090E09093010180930001809100019091C1
:100360000101CC9724F0109201011092000188EC59
:1003700090E09AC10895B7D0A7DEC3D17894C6E0C3
:10038000D1E0C6D1CCDE4091000150910101209115
:1003900002013091030180910401909105015F9366
:1003A0004F933F932F939F938F93DF93CF93ECD0F3
:1003B000AFD1B5DE409100015091010120910201C1
:1003C0003091030180910401909105015F934F9357
:1003D0003F932F939F938F93DF93CF93D5D098D153
:1003E0009EDE409100015091010120910201309167
:1003F000030180910401909105015F934F933F9316
:100400002F939F938F93DF93CF93BED081D187DEBD
:1004100040910001509101012091020130910301AE
:1004200080910401909105015F934F933F932F9327
:100430009F938F93DF93CF93A7D08DB79EB780966E
:100440000FB6F8949EBF0FBE8DBF62D168DE40919B
:10045000000150910101209102013091030180912E
:100460000401909105015F934F933F932F939F93C6
:100470008F93DF93CF9388D08091000190910101F9
:10048000019690930101809300018DB79EB7089665
:100490000FB6F8949EBF0FBE8DBF73CFDE9A90E06B
:1004A00003D1DE988BB3807F8BBB0895CF93C82F89
:1004B000DC988BB39C2F92959F70892B8BBB82E02D
:1004C000EDDF8BB3CF70C82BCBBB82E0E7DFDC9ACC
:1004D000CF91089581E0EADF81E090E0E5C00895E2
:1004E00082E0E4CF08958FEF8ABB83E08BBBDE9A76
:1004F00081E090E0D9D0DE9885E090E0D5D0DE9A1A
:1005000081E090E0D1D0DE98DE9A81E090E0CCD01E
:10051000DE9882E08BBB81E0C1DF8BB38BBB81E0D7
:10052000BDDF8BB38E608BBB81E0B8DF8BB38BBB41
:1005300081E0B4DF8BB386608BBB81E0AFDF8BB330
:100540008BBB81E0ABDFD89A81E0A8DFDC9AC8CF13
:10055000089580ECABCF089584E9A8CF089584ED89
:10056000A5CF0895CF93C82F8BB39C2F92959F70E2
:10057000892B8BBB81E092DF8BB3CF70C82BCBBBB9
:1005800081E08CDFCF910895CF92DF92EF92FF92BE
:100590000F931F93CF93DF93CDB7DEB7C155D1092A
:1005A0000FB6F894DEBF0FBECDBFFE01E45AFF4F79
:1005B000419151919F0161E570E0CE010196F7D024
:1005C000BE016F5F7F4F86E191E0E1D0892B09F496
:1005D0003FC0BE016F5F7F4F86E191E0E1D07ADFDF
:1005E0009E012F5F3F4F690100E010E00F2EF4E104
:1005F000EF2EF12CF02D24C08A3049F4C801B70148
:100600009FD0F701E81BF90B0E0F1F1F03C0AADFD5
:100610000F5F1F4FC801B70193D0892B89F4C80120
:10062000B7018ED06230710541F06330710539F049
:100630006130710529F48DDF03C08EDF01C08FDFCB
:10064000F60181916F01882319F000351105A4F29C
:10065000CF5ADF4F0FB6F894DEBF0FBECDBFDF918C
:10066000CF911F910F91FF90EF90DF90CF90089561
:100670001092680110926701811106C08BE085BD60
:1006800087B7806887BF07C0813029F489E085BDBE
:1006900087B7806887BF7894089587B78F7787BFBB
:1006A00085B58F7785BD0895CF93DF93EC018AEFF1
:1006B00083BD109268011092670180E0D9DF20911C
:1006C0006701309168012C173D07C8F3E6DFDF9121
:1006D000CF9108951F920F920FB60F9211248F930E
:1006E0009F938091670190916801019690936801B2
:1006F000809367019F918F910F900FBE0F901F9075
:10070000189584B3807C84BB85B38F6385BB0895C3
:100710009D9B0CC09C9B0CC09B9B0CC09A9B0CC0CF
:10072000999B0CC083B380958170089586E00895ED
:1007300085E0089584E0089583E0089582E00895B7
:1007400097FB072E16F4009406D077FD08D00BD047
:1007500007FC05D03EF4909581959F4F08957095C4
:1007600061957F4F0895AA1BBB1B51E107C0AA1FCB
:10077000BB1FA617B70710F0A61BB70B881F991F42
:100780005A95A9F780959095BC01CD010895FB017C
:10079000DC018D91019080190110D9F3990B089516
:1007A000FB01DC0101900D920020E1F708950F9309
:1007B0001F93CF93DF93CDB7DEB72E970FB6F89484
:1007C000DEBF0FBECDBF8C01CA0146E04C831A8349
:1007D000098377FF02C060E070E8615071097E8391
:1007E0006D83A901BC01CE01019619D04D815E81B6
:1007F00057FD0AC02F813885421753070CF49A0120
:10080000F801E20FF31F10822E960FB6F894DEBFA8
:100810000FBECDBFDF91CF911F910F9108952F9201
:100820003F924F925F926F927F928F929F92AF9280
:10083000BF92CF92DF92EF92FF920F931F93CF93CD
:10084000DF93CDB7DEB72C970FB6F894DEBF0FBE9F
:10085000CDBF7C016B018A01FC0117821682838166
:1008600081FFB0C1CE0101964C01F7019381F601E1
:1008700093FD859193FF81916F01882309F49EC1B7
:10088000853239F493FD859193FF81916F01853213
:1008900021F4B70190E0C7D1E8CF512C312C20E0F2
:1008A0002032A0F48B3269F030F4803259F0833278
:1008B00069F420612CC08D3239F0803339F4216025
:1008C00026C02260246023C0286021C027FD27C0E5
:1008D00030ED380F3A3078F426FF06C0FAE05F9E1C
:1008E000300D1124532E13C08AE0389E300D112490
:1008F000332E20620CC08E3221F426FD5FC12064AD
:1009000006C08C3611F4206802C0883641F4F60126
:1009100093FD859193FF81916F018111C1CF982F34
:100920009F7D9554933028F40C5F1F4FFFE3F983AC
:100930000DC0833631F0833771F0833509F057C02D
:1009400021C0F801808189830E5F1F4F44244394A6
:10095000512C540114C03801F2E06F0E711CF801E3
:10096000A080B18026FF03C0652D70E002C06FEF4C
:100970007FEFC5012C874CD12C0183012C852F776B
:10098000222E16C03801F2E06F0E711CF801A08013
:10099000B18026FF03C0652D70E002C06FEF7FEFCE
:1009A000C5012C872AD12C012C852068222E830199
:1009B00023FC19C0832D90E048165906A0F4B70116
:1009C00080E290E030D13A94F5CFF50127FC859193
:1009D00027FE81915F01B70190E025D131103A9453
:1009E000F1E04F1A51084114510479F7DEC0843602
:1009F00011F0893631F5F80127FF07C06081718158
:100A0000828193810C5F1F4F08C0608171818827AC
:100A100077FD8095982F0E5F1F4F2F76B22E97FF90
:100A200009C090958095709561957F4F8F4F9F4F2E
:100A30002068B22E2AE030E0A40127D1A82EA81801
:100A400043C0853729F42F7EB22E2AE030E025C03E
:100A5000F22FF97FBF2E8F36C1F018F4883579F068
:100A6000ADC0803719F0883721F0A8C02F2F206142
:100A7000B22EB4FE0DC08B2D8460B82E09C024FFA9
:100A80000AC09F2F9660B92E06C028E030E005C04E
:100A900020E130E002C020E132E0F801B7FE07C0FB
:100AA00060817181828193810C5F1F4F06C06081DC
:100AB000718180E090E00E5F1F4FA401E6D0A82E68
:100AC000A818FB2DFF77BF2EB6FE0BC02B2D2E7F57
:100AD000A51450F4B4FE0AC0B2FC08C02B2D2E7E23
:100AE00005C07A2C2B2D03C07A2C01C0752C24FF55
:100AF0000DC0FE01EA0DF11D8081803311F4297EC5
:100B000009C022FF06C07394739404C0822F8678B4
:100B100009F0739423FD12C020FF06C05A2C7314F1
:100B200018F4530C5718732C731460F4B70180E257
:100B300090E02C8778D073942C85F6CF731410F442
:100B4000371801C0312C24FF11C0B70180E390E0B9
:100B50002C8769D02C8522FF16C021FF03C088E5B1
:100B600090E002C088E790E0B7010CC0822F867841
:100B700051F021FD02C080E201C08BE227FD8DE231
:100B8000B70190E050D0A51430F4B70180E390E0B5
:100B90004AD05A94F8CFAA94F401EA0DF11D80814D
:100BA000B70190E040D0A110F6CF332009F45DCE1C
:100BB000B70180E290E037D03A94F7CFF701868111
:100BC000978102C08FEF9FEF2C960FB6F894DEBF8F
:100BD0000FBECDBFDF91CF911F910F91FF90EF908E
:100BE000DF90CF90BF90AF909F908F907F906F904D
:100BF0005F904F903F902F900895FC0105906150B9
:100C000070400110D8F7809590958E0F9F1F089522
:100C1000FC016150704001900110D8F780959095CB
:100C20008E0F9F1F08950F931F93CF93DF93182F5D
:100C3000092FEB018B8181FD03C08FEF9FEF20C057
:100C400082FF10C04E815F812C813D814217530786
:100C50007CF4E881F9819F012F5F3F4F398328831E
:100C6000108306C0E885F985812F0995892B29F71E
:100C70002E813F812F5F3F4F3F832E83812F902F07
:100C8000DF91CF911F910F910895FA01AA27283083
:100C900051F1203181F1E8946F936E7F6E5F7F4F49
:100CA0008F4F9F4FAF4FB1E03ED0B4E03CD0670FC5
:100CB000781F891F9A1FA11D680F791F8A1F911D18
:100CC000A11D6A0F711D811D911DA11D20D009F468
:100CD00068943F912AE0269F11243019305D3193AA
:100CE000DEF6CF010895462F4770405D4193B3E093
:100CF0000FD0C9F7F6CF462F4F70405D4A3318F03A
:100D0000495D31FD4052419302D0A9F7EACFB4E0EA
:100D1000A6959795879577956795BA95C9F70097A2
:100D20006105710508959B01AC010A2E0694579543
:100D3000479537952795BA95C9F7620F731F841F9A
:0A0D4000951FA01D0895F894FFCF41
:100D4A0037003B001700253032643A253032643AC6
:060D5A00253032640000A8
:00000001FF
