:100000000EC100002AC1000028C1000026C1000066
:1000100024C1000022C1000020C100001EC1000058
:100020001CC100005EC4000018C10000D2C1000065
:1000300014C1000012C10000FBC100000EC100008D
:100040000CC100000AC1000008C1000006C1000088
:1000500004C1000002C1000000C10000FEC0000099
:10006000FCC00000FAC00000F9C00000F6C00000AB
:10007000F4C00000F2C00000F0C00000EEC00000BC
:10008000ECC00000EAC00000E8C00000A00196013A
:100090008C01820178016F01650107634236B79BCD
:1000A000D8A71A39685618AEBAAB558C1D3CB7CCD8
:1000B0005763BD6DEDFD753EF6177231BF00000050
:1000C000803F08000000BE922449123EABAAAA2A33
:1000D000BECDCCCC4C3E00000080BEABAAAAAA3E4E
:1000E00000000000BF000000803F0000000000088A
:1000F0004178D3BB4387D1133D190E3CC3BD428227
:10010000AD2B3E68EC8276BED98FE1A93E4C80EFE4
:10011000FFBE01C4FF7F3F00000000006E616E0063
:10012000696E660000407A10F35A00A0724E1809FA
:100130000010A5D4E80000E87648170000E40B544E
:10014000020000CA9A3B000000E1F505000080961D
:100150009800000040420F000000A086010000004F
:10016000102700000000E803000000006400000009
:1001700000000A00000000000100000000002C76D2
:10018000D888DC674F0823DFC1DFAE59E1B1B796ED
:10019000E5E3E453C63AE651997696E8E6C284264A
:1001A000EB898C9B62ED407C6FFCEFBC9C9F40F226
:1001B000BAA56FA5F490055A2AF75C936B6CF967A2
:1001C0006DC11BFCE0E40D47FEF520E6B500D0ED67
:1001D000902E0300943577050080841E08000020CF
:1001E0004E0A000000C80C333333330F986E12836D
:1001F0001141EF8D2114893BE65516CFFEE6DB1841
:10020000D1844B381BF77C1D901DA4BBE424203205
:1002100084725E228100C9F124ECA1E53D271124FE
:100220001FBECFEFD0E1DEBFCDBF11E0A0E0B1E057
:10023000E6EAFBE100E00BBF02C007900D92AA3B8B
:10024000B107D9F722E0AAEBB1E001C01D92A831B5
:10025000B207E1F704D10C94D10DD2CE1F920F92C8
:100260000FB60F9211240BB60F92CF92DF92EF923E
:10027000FF920F931F932F933F934F935F936F932F
:100280007F938F939F93AF93BF93EF93FF93CF93FE
:10029000DF93CDB7DEB7A897DEBFCDBF39D380934C
:1002A000C1019091C1018091C001981302C01092C8
:1002B000C1018091C10190E08730910508F041C0F3
:1002C000FC01EA5BFF4F0C94F10B85E0E6E0F1E006
:1002D000DE01119601900D928A95E1F732C08EE40D
:1002E0009FE6ADE0B0E089839A83AB83BC8329C0ED
:1002F0008BE1EBE0F1E0DE01119601900D928A9521
:10030000E1F71FC08FE0E6E2F1E0DE011196019017
:100310000D928A95E1F715C08DE1E5E3F1E0DE018C
:10032000119601900D928A95E1F70BC085E2E2E506
:10033000F1E0DE01119601900D928A95E1F701C07E
:1003400019828091C101882319F18E010F5F1F4F1F
:100350001F930F93BAD168010F900F9000E010E047
:10036000760106C0F60181916F0135D20F5F1F4FF4
:10037000F70101900020E9F73197EE19FF090E17F8
:100380001F0780F38AE027D28091C1018093C001CA
:10039000A8960FB6F894DEBF0FBECDBFDF91CF9108
:1003A000FF91EF91BF91AF919F918F917F916F914D
:1003B0005F914F913F912F911F910F91FF90EF907F
:1003C000DF90CF900F900BBE0F900FBE0F901F903D
:1003D00018951F920F920FB60F9211248F939F932F
:1003E0008091130281110DC086B597B59093BF011E
:1003F0008093BE0181E0809313028EB58F7B8EBD0A
:1004000010C080911302813061F486B597B5909346
:10041000BD018093BC0182E0809313028EB580649D
:100420008EBD9F918F910F900FBE0F901F901895CA
:100430001F920F920FB60F9211248F939F9380916A
:10044000BA019091BB0101969093BB018093BA01D0
:100450009F918F910F900FBE0F901F901895CF9383
:10046000DF9300D000D0CDB7DEB7A9D1B8D1DCD0B2
:10047000C1D1E0D1812C912CA12CB12C00E010E055
:10048000712CF89410921302BDD1789480911302CC
:100490008230E1F78091BC019091BD012091BE01B5
:1004A0003091BF01821B930B96958795B6D1BC0105
:1004B00080E090E043D329E132EE48ED5DE3D0D314
:1004C0002BE237E44BE852E43BD207D36B017C01CB
:1004D0008091BC019091BD018091BE019091BF01BE
:1004E000B601882777FD8095982F2AD32EE432E62F
:1004F00047ED51E48AD2662E572E482E392E85E0DC
:100500008A837B8271D1080F191FEA81FB813197A1
:10051000FB83EA83EF2BB1F7C80165E0772D0E94DA
:10052000DE0B8B01882777FD8095982F09D32FE864
:1005300032EC45E95FEBF7D320E035E74EE057E4D6
:100540008FD369837A838C83292E682D792D8A2D08
:100550009B2DC8D2CB017CD120E030E040EA50E4B2
:10056000682D792D8A2D9B2DECD1862E972EA82EC5
:10057000B92E20E030E044E353E46ED318163CF487
:1005800082E390E098D1812C912CA12CB12CBF92C8
:10059000AF929F928F92A7E7B1E0BF93AF9395D0B0
:1005A0003F924F925F926F92BF92AF929F928F92C3
:1005B0002F92FC81FF938A818F9399819F93DF9281
:1005C000CF92A4E8B1E0BF93AF937FD088EC90E0E6
:1005D00072D10FB6F894DEBF0FBECDBF52CFDE9AF8
:1005E00090E069D1DE988BB3807F8BBB0895CF9369
:1005F000C82FDC988BB39C2F92959F70892B8BBB57
:1006000082E0EDDF8BB3CF70C82BCBBB82E0E7DF9E
:10061000DC9ACF91089581E0EADF81E090E04BC160
:10062000089582E0E4CF08958FEF8ABB83E08BBB0F
:10063000DE9A81E090E03FD1DE9885E090E03BD10A
:10064000DE9A81E090E037D1DE98DE9A81E090E09A
:1006500032D1DE9882E08BBB81E0C1DF8BB38BBBF4
:1006600081E0BDDF8BB38E608BBB81E0B8DF8BB3E5
:100670008BBB81E0B4DF8BB386608BBB81E0AFDFE7
:100680008BB38BBB81E0ABDFD89A81E0A8DFDC9A2B
:10069000C8CF089580ECABCF089584E9A8CF089522
:1006A00084EDA5CF0895CF93C82F8BB39C2F92953F
:1006B0009F70892B8BBB81E092DF8BB3CF70C82BEF
:1006C000CBBB81E08CDFCF910895CF92DF92EF9288
:1006D000FF920F931F93CF93DF93CDB7DEB7C15532
:1006E000D1090FB6F894DEBF0FBECDBFFE01E45AAC
:1006F000FF4F419151919F0161E570E0CE0101965C
:100700000E943B0DBE016F5F7F4F82EC91E00E9423
:10071000EE0C892B09F443C0BE016F5F7F4F82EC62
:1007200091E00E94F70C77DF9E012F5F3F4F690138
:1007300000E010E00F2EF4E1EF2EF12CF02D27C099
:100740008A3051F4C801B7010E94DE0BF701E81BA3
:10075000F90B0E0F1F1F03C0A6DF0F5F1F4FC8014D
:10076000B7010E94DE0B892B91F4C801B7010E94EA
:10077000DE0B6230710541F06330710539F0613094
:10078000710529F487DF03C088DF01C089DFF60126
:1007900081916F01882319F0003511058CF2CF5A31
:1007A000DF4F0FB6F894DEBF0FBECDBFDF91CF9104
:1007B0001F910F91FF90EF90DF90CF9008951092CE
:1007C000900082E289B982E08BB988E18AB98EE033
:1007D0008093950008955D9BFECF8CB9089582ECBF
:1007E00087B987E886B90895369A3699FECF84B1DD
:1007F00095B108951FBC84EC8EBD10927A0084E2FE
:1008000087BF08958C9A949A83E090E054D094988E
:100810008C9886B78C6386BF0895BC0180E090E019
:100820008DD12BE734E14EEA50E41AD2C8D255D12B
:10083000CB01089583E280938B008AE180938A0044
:1008400088EF97EA9093870080938600149A089522
:10085000BC0180E090E072D127E836E144E951E440
:10086000FFD120E030E04FE254E46BD03BD17093F5
:1008700085006093840089E190E01DC00895109286
:10088000170210921602811106C08BE085BD87B752
:10089000806887BF07C0813029F489E085BD87B7AC
:1008A000806887BF7894089587B78F7787BF85B5AD
:1008B0008F7785BD0895CF93DF93EC018AEF83BDD9
:1008C000109217021092160280E0D9DF20911602D2
:1008D000309117022C173D07C8F3E6DFDF91CF9167
:1008E00008951F920F920FB60F9211248F939F932A
:1008F00080911602909117020196909317028093AF
:1009000016029F918F910F900FBE0F901F90189518
:100910009D9B0CC09C9B0CC09B9B0CC09A9B0CC0CD
:10092000999B0CC083B380958170089586E00895EB
:1009300085E0089584E0089583E0089582E00895B5
:100940005058BB27AA270ED04DC13ED130F043D11D
:1009500020F031F49F3F11F41EF433C10EF4E09502
:10096000E7FB29C1E92F4FD180F3BA17620773075C
:100970008407950718F071F49EF567C10EF4E095B1
:100980000B2EBA2FA02D0B01B90190010C01CA0149
:10099000A0011124FF27591B99F0593F50F4503EF4
:1009A00068F11A16F040A22F232F342F4427585FE6
:1009B000F3CF469537952795A795F0405395C9F7FE
:1009C0007EF41F16BA0B620B730B840BBAF09150B6
:1009D000A1F0FF0FBB1F661F771F881FC2F70EC055
:1009E000BA0F621F731F841F48F487957795679528
:1009F000B795F7959E3F08F0B3CF9395880F08F011
:100A00009927EE0F9795879508950CD0EBC0E3D00A
:100A100040F0DAD030F021F45F3F19F0CCC0511132
:100A200015C1CFC0F0D098F39923C9F35523B1F382
:100A3000951B550BBB27AA2762177307840738F04D
:100A40009F5F5F4F220F331F441FAA1FA9F333D0AC
:100A50000E2E3AF0E0E830D091505040E695001C60
:100A6000CAF729D0FE2F27D0660F771F881FBB1F1C
:100A7000261737074807AB07B0E809F0BB0B802DF6
:100A8000BF01FF2793585F4F2AF09E3F510568F042
:100A900092C0DCC05F3FECF3983EDCF3869577951F
:100AA0006795B795F7959F5FC9F7880F911D969544
:100AB000879597F90895E1E0660F771F881FBB1FA0
:100AC000621773078407BA0720F0621B730B840B4D
:100AD000BA0BEE1F88F7E095089504D06894B11121
:100AE000B5C0089598D088F09F5790F0B92F9927F6
:100AF000B751A0F0D1F0660F771F881F991F1AF029
:100B0000BA95C9F712C0B13081F09FD0B1E0089515
:100B10009CC0672F782F8827B85F39F0B93FCCF396
:100B2000869577956795B395D9F73EF4909580951E
:100B3000709561957F4F8F4F9F4F0895E89409C03E
:100B400097FB3EF490958095709561957F4F8F4F00
:100B50009F4F9923A9F0F92F96E9BB279395F69516
:100B6000879577956795B795F111F8CFFAF4BB0F94
:100B700011F460FF1BC06F5F7F4F8F4F9F4F16C0F8
:100B8000882311F096E911C0772321F09EE8872F82
:100B9000762F05C0662371F096E8862F70E060E03E
:100BA0002AF09A95660F771F881FDAF7880F9695B7
:100BB000879597F9089597F99F6780E870E060E05E
:100BC00008959FEF80EC089500240A9416161706E6
:100BD00018060906089500240A941216130614062E
:100BE00005060895092E0394000C11F4882352F091
:100BF000BB0F40F4BF2B11F460FF04C06F5F7F4F49
:100C00008F4F9F4F089557FD9058440F551F59F02F
:100C10005F3F71F04795880F97FB991F61F09F3FE9
:100C200079F087950895121613061406551FF2CF12
:100C30004695F1DF08C0161617061806991FF1CF62
:100C400086957105610508940895E894BB27662789
:100C50007727CB0197F9089503D108F48FEF089512
:100C60000BD0C0CFB1DF28F0B6DF18F0952309F024
:100C7000A2CFA7CF1124EACFC6DFA0F3959FD1F36F
:100C8000950F50E0551F629FF001729FBB27F00D3A
:100C9000B11D639FAA27F00DB11DAA1F649F66278F
:100CA000B00DA11D661F829F2227B00DA11D621FDE
:100CB000739FB00DA11D621F839FA00D611D221F98
:100CC000749F3327A00D611D231F849F600D211D7C
:100CD000822F762F6A2F11249F5750408AF0E1F01F
:100CE00088234AF0EE0FFF1FBB1F661F771F881F68
:100CF00091505040A9F79E3F510570F05CCFA6CFB0
:100D00005F3FECF3983EDCF3869577956795B79552
:100D1000F795E7959F5FC1F7FE2B880F911D96957C
:100D2000879597F90895FA01EE0FFF1F3096210578
:100D3000310599F16115710561F48038BFE39B07B6
:100D400049F168949038810561F08038BFEF9B07C6
:100D500041F0992342F5FF3FE1053105210511F1ED
:100D6000E8940894E795D901AA2329F4AB2FBE2F64
:100D7000F85FD0F310C0FF5F70F4A695E0F7F73985
:100D800050F019F0FF3A38F49F779F930CD00F90F2
:100D900007FC905808953EF014CF60E070E080E8C2
:100DA0009FE308954FE79F775F934F933F932F9370
:100DB0000BD12F913F914F915F9152DF25C02BDFD7
:100DC000E0F09E37D8F09639B8F49E3848F4672F93
:100DD000782F8827985FF9CF8695779567959395B3
:100DE0009539D0F3B62FB1706B0F711D811D20F4B2
:100DF000879577956795939557C071C027CF19F45C
:100E00000EF0D9CE22CFDDCE06DFC8F39638C0F77C
:100E100007F80F92E8942BE33AEA48EB5FE72EDFFE
:100E20000F920F920F924DB75EB70F920DD1EAE974
:100E3000F0E063D04F915F91EF91FF91E595EE1F48
:100E4000FF1F49F0FE57E0684427EE0F441FFA9554
:100E5000E1F74195550B7FD00F9007FE73C00895C1
:100E6000990F0008550FAA0BE0E8FEEF16161706BB
:100E7000E807F907C0F012161306E407F50798F023
:100E8000621B730B840B950B39F40A2661F0232B3C
:100E9000242B252B21F408950A2609F4A140A695B8
:100EA0008FEF811D811D0895882371F4772321F030
:100EB0009850872B762F07C0662311F499270DC011
:100EC0009051862B70E060E02AF09A95660F771FAC
:100ED000881FDAF7880F9695879597F908959F3FB1
:100EE00031F0915020F4879577956795B795880FE5
:100EF000911D9695879597F90895DF93CF931F934A
:100F00000F93FF92EF92DF927B018C01689405C0F2
:100F1000DA2EEF01B1DEFE01E894A591259135911D
:100F200045915591AEF3EF011DDDFE019701A8013A
:100F3000DA9479F7DF90EF90FF900F911F91CF91A6
:100F4000DF9108959B01AC0160E070E080E89FE3D1
:100F50005CCD31CEC4CF5FDEE8F39923D9F3940F93
:100F6000511DBBF39150504094F059F0882332F05A
:100F7000660F771F881F91505040C1F79E3F510563
:100F800044F7880F911D9695879597F908955F3FCF
:100F9000ACF0983E9CF0BB27869577956795B79502
:100FA00008F4B1609395C1F7BB0F58F711F460FFD7
:100FB000E8CF6F5F7F4F8F4F9F4FE3CF47CE0EF04D
:100FC0008ECFFFCD6894F7CD26DEC8F39923D1F3F9
:100FD000C6F3DF93CF931F930F93FF92C92FDD27A3
:100FE00088232AF02197660F771F881FDAF720E001
:100FF00030E040E85FEB9FE3883920F0803E30F03E
:1010000021968F779EDCE2ECF0E003C09ADCEFEEF5
:10101000F0E073DF8B01BE01EC01FB2E6F5771090D
:101020007595771F880B990B8BDD28E132E741E33B
:101030005FE322DEAF2D9801AE01FF900F911F916B
:10104000CF91DF918FDCCECDFA01DC01AA0FBB1F5F
:101050009B01AC01BF5728F422273327442750783F
:101060001FC0B75188F4AB2F0024469537952795BC
:10107000011CA395D2F3002069F0220F331F441FF7
:10108000B395DAF30DD05CCC61307105A0E88A0726
:10109000B94630F49B01AC01662777278827907802
:1010A000309621F0208331834283538308952F9219
:1010B0003F924F925F926F927F928F929F92AF92E8
:1010C000BF92CF92DF92EF92FF920F931F93CF9335
:1010D000DF93CDB7DEB763970FB6F894DEBF0FBED0
:1010E000CDBF7C011B016A01FC011782168283813E
:1010F00081FF49C3BE016F5F7F4F4B01F7019381B1
:10110000F10193FD859193FF81911F01882309F4DB
:1011100036C3853239F493FD859193FF81911F0188
:10112000853231F4B70190E074D456016501E6CF01
:1011300010E0512C20E02032A0F48B3269F030F422
:10114000803259F0833269F420612CC08D3239F03D
:10115000803339F4216026C02260246023C02860D7
:1011600021C027FD27C030ED380F3A3078F426FF34
:1011700006C0FAE01F9F300D1124132F13C06AE040
:10118000569E300D1124532E20620CC08E3221F455
:1011900026FDF5C2206406C08C3611F4206802C01A
:1011A000883641F4F10193FD859193FF81911F01F0
:1011B0008111C1CF9BEB980F933018F42061805EB2
:1011C00006C09BE9980F933008F09AC12F7E26FF46
:1011D00016E02F73722E853621F4F22FF0647F2EE5
:1011E00008C0863621F4622F6068762E02C0111185
:1011F000115077FE07C01C3348F444244394410E39
:1012000027E00BC0183030F4212F06C027E04CE354
:10121000442E03C027E017E0412C560174E0A70ECE
:10122000B11CF6016081718182819381042DA4013A
:10123000F2D26C01098100FF02C003FF06C071FCFD
:1012400007C072FC08C0612C08C03DE2632E05C0D7
:101250002BE2622E02C090E2692E802F8C7081F109
:10126000662011F084E001C083E0851510F0512C58
:101270000AC0581A73FC07C0B70180E290E0C9D3D6
:101280005A94D1F7F4CF662021F0B701862D90E073
:10129000C0D303FD03C000E211E002C00CE111E085
:1012A000F72DF0717F2EF8018491882309F45EC236
:1012B00071108052B70190E0ACD30F5F1F4FF3CF96
:1012C00077FE0FC04C0C04FF04C08A81813309F4FF
:1012D0004A94141474F5F8E0F41578F588E0482E73
:1012E0002CC076FC2AC0812F90E08C159D059CF0C7
:1012F0006CEFC6166FEFD60674F0772D7068772EF8
:101300000AC0E2E0F0E0EC0FFD1FE10FF11D80816B
:10131000803319F411501111F4CF77FE0EC044241C
:101320004394410E812F90E0C816D9062CF41C1965
:1013300004C04424439401C010E077FE07C01C148D
:101340001D043CF496012F5F3F4F05C025E030E0BF
:1013500002C021E030E0662011F02F5F3F4F1123E3
:1013600031F0412F50E04F5F5F4F240F351F452D67
:1013700050E02417350714F4521A01C0512C872D60
:10138000897041F4552031F0B70180E290E041D3FB
:101390005A94F8CF662021F0B701862D90E039D31A
:1013A00073FC08C0552031F0B70180E390E031D3E1
:1013B0005A94F8CF77FE5DC09C2D8D2DD7FE02C0CC
:1013C00090E080E0692E782E40E050E0C60184195C
:1013D00091099D878C87960126193709280D391D9B
:1013E000812F90E0EE27FF27E81BF90BFF87EE87A0
:1013F000FFEF6F167F0661F4B7018EE290E02B8B52
:101400003A8B488B598B05D3598948893A892B895E
:10141000C614D70454F06C857D85661577052CF4C9
:10142000F901E40FF51F818101C080E371E0671AC3
:1014300071084F5F5F4FEE85FF856E167F0664F083
:10144000B70190E02B8B3A8B488B598BE2D22B89DA
:101450003A8948895989CCCF6C147D0439F49A8132
:10146000963318F4953311F404FF81E3B70190E04B
:1014700045C08A81813309F00F7EB70190E0C9D25F
:10148000111105C074FE16C085E490E015C0B701C7
:101490008EE290E0BED282E066246394680EF4018E
:1014A000E80FF11D8081B70190E0B3D2115051F3E4
:1014B000862DF2CF85E690E0B701ABD2D7FC05C010
:1014C000C114D10439F404FF05C0D194C194D108EA
:1014D0008DE201C08BE2B70190E09BD280E36AE02D
:1014E000C616D1042CF08F5FFAE0CF1AD108F7CFDF
:1014F000B70190E08ED2B701C601C0968AD236C13C
:10150000833631F0833779F0833509F054C020C039
:10151000560172E0A70EB11CF6018081898301E0BB
:1015200010E0640113C05601F2E0AF0EB11CF601E9
:10153000C080D18026FF03C0612F70E002C06FEF32
:101540007FEFC6012B8B5AD28C012B892F7714C0C9
:101550005601F2E0AF0EB11CF601C080D18026FF2B
:1015600003C0612F70E002C06FEF7FEFC6012B8BCD
:101570002AD28C012B892068722E23FD18C0852D5C
:1015800090E00817190798F4B70180E290E041D283
:101590005A94F5CFF60177FC859177FE81916F0122
:1015A000B70190E036D251105A940150110901153B
:1015B000110581F7DBC0843611F0893649F55601F3
:1015C00027FF09C0F4E0AF0EB11CF6016081718104
:1015D000828193810AC0F2E0AF0EB11CF6016081F6
:1015E0007181882777FD8095982F022F0F7697FFBE
:1015F00008C090958095709561957F4F8F4F9F4F54
:1016000000682AE030E0A4016ED2C82EC8183DC0A0
:10161000022F853721F40F7E2AE030E01DC0097FBC
:101620008F3691F018F4883559F0A9C0803719F039
:10163000883711F0A4C0006104FF09C0046007C02E
:1016400024FF08C0066006C028E030E005C020E1A5
:1016500030E002C020E132E0560107FF09C0F4E0AB
:10166000AF0EB11CF601608171818281938108C047
:10167000F2E0AF0EB11CF6016081718180E090E074
:10168000A40131D2C82EC8180F7706FF0BC0202F37
:101690002E7FC11650F404FF0AC002FD08C0202F9F
:1016A0002E7E05C0DC2C202F03C0DC2C01C0D12EE7
:1016B00024FF0DC0FE01EC0DF11D8081803311F47B
:1016C000297E09C022FF06C0D394D39404C0822F80
:1016D000867809F0D39423FD12C020FF06C01C2D8C
:1016E000D51418F4150D1D19D52CD51460F4B701B7
:1016F00080E290E02B8B8DD1D3942B89F6CFD5143B
:1017000010F45D1801C0512C24FF11C0B70180E313
:1017100090E02B8B7ED12B8922FF16C021FF03C0C6
:1017200088E590E002C088E790E0B7010CC0822F06
:10173000867851F021FD02C080E201C08BE227FDD6
:101740008DE2B70190E065D1C11630F4B70180E3B6
:1017500090E05FD11150F8CFCA94F401EC0DF11D67
:101760008081B70190E055D1C110F6CF552009F422
:10177000DDCCB70180E290E04CD15A94F7CFF7016D
:101780008681978102C08FEF9FEF63960FB6F89422
:10179000DEBF0FBECDBFDF91CF911F910F91FF90A4
:1017A000EF90DF90CF90BF90AF909F908F907F9001
:1017B0006F905F904F903F902F90089597FB072E6A
:1017C00016F4009406D077FD08D011D007FC05D0A0
:1017D0003EF4909581959F4F0895709561957F4F48
:1017E0000895EE0FFF1F0590F491E02D0994AA1BB8
:1017F000BB1B51E107C0AA1FBB1FA617B70710F0FC
:10180000A61BB70B881F991F5A95A9F7809590952D
:10181000BC01CD010895283008F027E03327DA0114
:10182000990F311D87FD916000966105710539F4AE
:1018300032602E5F3D9330E32A95E1F708959F3F94
:1018400030F080387105610509F03C5F3C5F3D93E5
:10185000913008F08068911DDF93CF931F930F9311
:10186000FF92EF92192F987F9695E92F969596956E
:10187000E90FFF27E258FE4F99273327EE24FF2474
:10188000A701E70105900894079428F4360FE71E96
:10189000F81E491F511D660F771F881F991F069458
:1018A000A1F70590079428F4E70EF81E491F561F6C
:1018B000C11D770F881F991F661F0694A1F7059019
:1018C000079428F4F80E491F561FC71FD11D880F13
:1018D000991F661F771F0694A1F70590079420F4BF
:1018E000490F561FC71FD81F990F661F771F881FE4
:1018F0000694A9F784911095177041F0D695C79575
:1019000057954795F794E7941A95C1F7E4E2F1E00B
:1019100068941590159135916591959105907FE2A8
:101920007395E118F10A430B560BC90BD009C0F7A8
:10193000E10CF11E431F561FC91FD01D7EF47033EA
:1019400011F48A95E6CFE894015030F0080F0AF4BC
:101950000027021708F4202F2395022F7A3328F04E
:1019600079E37D932A95E9F710C07D932A9589F64E
:10197000069497956795379517951794E118F10A8E
:10198000430B560BC90BD00998F023957E917395A4
:101990007A3308F070E37C932013B8F77E9170617E
:1019A0007D9330F0839571E37D9370E32A95E1F7A1
:1019B0001124EF90FF900F911F91CF91DF91992704
:1019C00087FD90950895FC010590615070400110CD
:1019D000D8F7809590958E0F9F1F0895FB01DC012D
:1019E0008D91019080190110D9F3990B0895FB0195
:1019F000DC0101900D920020E1F70895FC01615097
:101A0000704001900110D8F7809590958E0F9F1F20
:101A100008950F931F93CF93DF93182F092FEB0196
:101A20008B8181FD03C08FEF9FEF20C082FF10C02C
:101A30004E815F812C813D81421753077CF4E88100
:101A4000F9819F012F5F3F4F39832883108306C0A0
:101A5000E885F985812F0995892B29F72E813F810A
:101A60002F5F3F4F3F832E83812F902FDF91CF91A8
:101A70001F910F9108950F931F93CF93DF93CDB7CD
:101A8000DEB72E970FB6F894DEBF0FBECDBF8C0128
:101A9000CA0146E04C831A83098377FF02C060E0E5
:101AA00070E8615071097E836D83A901BC01CE018C
:101AB0000196FDDA4D815E8157FD0AC02F81388580
:101AC000421753070CF49A01F801E20FF31F10823A
:101AD0002E960FB6F894DEBF0FBECDBFDF91CF912B
:101AE0001F910F910895FA01AA27283051F1203152
:101AF00081F1E8946F936E7F6E5F7F4F8F4F9F4FA2
:101B0000AF4FB1E03ED0B4E03CD0670F781F891FE3
:101B10009A1FA11D680F791F8A1F911DA11D6A0FB1
:101B2000711D811D911DA11D20D009F468943F9164
:101B30002AE0269F11243019305D3193DEF6CF0163
:101B40000895462F4770405D4193B3E00FD0C9F729
:101B5000F6CF462F4F70405D4A3318F0495D31FD96
:101B60004052419302D0A9F7EACFB4E0A6959795E9
:101B7000879577956795BA95C9F7009761057105BF
:101B800008959B01AC010A2E069457954795379509
:101B90002795BA95C9F7620F731F841F951FA01D63
:061BA0000895F894FFCF48
:101BA6000000180220005965730D00426C75652C03
:101BB600206E6F20677265656E2C204168686868C4
:101BC600682121210D004359434C4F4E4520535463
:101BD6004154450D0045766572797468696E6720D3
:101BE600697320617765736F6D65656565656565A4
:101BF6000D004D616B696E67206D792077617920E4
:101C0600646F776E746F776E2077616C6B696E6741
:101C160020666173740D00416E676C652069733AC6
:101C26002025660044697374616E636520533A200B
:101C360025640A44697374616E63652049523A20CB
:101C460025660A416E676C653A202566206D730A23
:0A1C560054696D653A202564000012
:00000001FF
