S01700004763634170706C69636174696F6E312E737265635B
S113000045C0000060C000005EC000005CC000008D
S11300105AC0000058C0000056C0000054C0000080
S113002052C0000045C300004EC000004CC0000098
S11300304AC0000048C0000046C0000044C00000A0
S113004042C0000040C000003EC000003CC00000B0
S11300503AC0000038C0000036C0000034C00000C0
S113006032C0000030C000002EC000002CC00000D0
S11300702AC0000028C0000026C0000024C00000E0
S113008022C0000020C000001EC0000011241FBEBA
S1130090CFEFD0E1DEBFCDBF11E0A0E0B1E0E2E7F9
S11300A0F9E000E00BBF02C007900D92A231B10746
S11300B0D9F721E0A2E1B1E001C01D92A831B20755
S11300C0E1F702D054C49CCF0F931F93CF93DF93D7
S11300D060D086E091E0A5D089D1EC018BD200E01C
S11300E010E06CE271E08CE291E0AAD1CE01C7D1BC
S11300F08C859D85080F191F888181FF0DC0CE0155
S1130100BED18C859D85080F191F0F50110961E020
S113011070E0CE0132D10EC080FF0CC0CE01AFD151
S11301208C859D85080F191F0F50110962E070E03E
S1130130CE0123D1003D87E018079CF260E070E017
S113014080E090E07DD180E090E0DF91CF911F913D
S11301500F910895DE9A90E095D2DE988BB3807F5C
S11301608BBB0895CF93C82FDC988BB39C2F9295AB
S11301709F70892B8BBB82E0EDDF8BB3CF70C82BD4
S1130180CBBB82E0E7DFDC9ACF91089582E0EACF2F
S113019008958FEF8ABB83E08BBBDE9A81E090E009
S11301A071D2DE9885E090E06DD2DE9A81E090E035
S11301B069D2DE98DE9A81E090E064D2DE9882E033
S11301C08BBB81E0C7DF8BB38BBB81E0C3DF8BB319
S11301D08E608BBB81E0BEDF8BB38BBB81E0BADF6B
S11301E08BB386608BBB81E0B5DF8BB38BBB81E0C7
S11301F0B1DFD89A81E0AEDFDC9AC8CF0895CF93FF
S1130200C82F8BB39C2F92959F70892B8BBB81E059
S1130210A1DF8BB3CF70C82BCBBB81E09BDFCF9129
S11302200895EF92FF920F931F93CF93DF93FC01F6
S113023001900020E9F731977F01E81AF90A1E14AA
S11302401F045CF48C01C0E0D0E0F80181918F01BF
S1130250D6DF2196EC16FD06C1F7DF91CF911F91F1
S11302600F91FF90EF900895EF92FF920F931F93D9
S1130270CF93DF938C017B017723BCF464ED7EEF95
S113028084ED9EEFDDD0C0E0D0E0C801F8D0F801E5
S113029084859585C80FD91FEC16FD06B4F360E07C
S11302A070E080E090E0CCD019C06CE271E08CE2A8
S11302B091E0C6D01E141F0464F4C0E0D0E0C8016D
S11302C0DED0F80184859585C80FD91FCE15DF05CA
S11302D0B4F360E070E080E090E0B2D0DF91CF91C1
S11302E01F910F91FF90EF900895EF92FF920F935B
S11302F01F93CF93DF938C017B017723DCF464E6B7
S113030070E08CE99FEF9CD086E0E80EF11C62F46B
S1130310C0E0D0E0C801B3D0F80186859785C80F46
S1130320D91FEC16FD06B4F360E070E080E090E0C5
S113033087D01CC06CE97FEF84E690E081D0F6E0C2
S1130340EF1AF1081E141F0464F4C0E0D0E0C801E1
S113035096D0F80186859785C80FD91FCE15DF057D
S1130360B4F360E070E080E090E06AD0DF91CF9178
S11303701F910F91FF90EF9008950F931F93CF93C8
S1130380DF93EC018B0160E070E080E090E058D0F6
S11303900130110589F461EF7FEFCE0165DF66EA74
S11303A07FEFCE01A2DF64E670E0CE015DDF6AE597
S11303B070E0CE019ADF13C00230110581F461EFC1
S11303C07FEFCE0151DF6AE570E0CE018EDF64E697
S11303D070E0CE0149DF66EA7FEFCE0186DFCE0111
S11303E04ED0DF91CF911F910F91089564E370E097
S11303F081E090E074C10895EBE9F0E0908195FF0D
S1130400FDCF80939C0008950F931F93CF93DF93A8
S1130410082F162FD42FC22F8BE8EEDF112329F0DB
S113042081E0011103C080E001C080E0E5DF8D2F91
S1130430E3DF8C2FE1DFDF91CF911F910F910895BE
S11304400F931F93CF93DF93182F092FC62FD72F06
S113045081E9D2DF802FD0DF812FCEDF8D2FCCDF5B
S11304608C2FCADFDF91CF911F910F910895EBE993
S1130470F0E080818823ECF780919C000895EF924E
S1130480FF920F931F93CF93DF937C0180919B0086
S1130490882344F4ACE9B0E0EBE9F0E08C9180818E
S11304A08823E4F38EE8A8DF86E0A6DFE70187016E
S11304B00C5C1F4FDCDF8993C017D107D9F7F70114
S11304C0848590E0982F88272585820F911D958734
S11304D08487868590E0982F88272785820F911D31
S11304E097878687818990E0982F88272289820FB1
S11304F0911D928B818B838990E0982F8827248982
S1130500820F911D948B838B868990E0982F882786
S11305102789820F911D978B868B808D90E0982F71
S11305208827218D820F911D918F808F828D90E07D
S1130530982F8827238D820F911D938F828F848D0E
S113054090E0982F8827258D820F911D958F848F99
S1130550868D90E0982F8827278D820F911D978F85
S1130560868F80A190E0982F882721A1820F911D6A
S113057091A380A382A190E0982F882723A1820FC2
S1130580911D93A382A382A590E021A530E0322F90
S11305902227280F391F36A325A320A930E0322FA4
S11305A02227820F931F95A784A782A990E0982FF2
S11305B0882723A9820F911D97A786A784A990E075
S11305C0982F882725A9820F911D91AB80AB86A90E
S11305D090E0982F882727A9820F911D93AB82ABB7
S11305E083E290E04FD0DF91CF911F910F91FF9064
S11305F0EF9008950F931F93CF93DF93EC0109E9D4
S113060010E080E1F801808388E180939A0086E01D
S113061080939D0080E8F0DE81E8EEDE88E0ECDE89
S113062084E690E02FD081E2F801808384E8E4DE60
S11306302FEF47E061E081E0E7DECE0120DFCE016D
S11306401EDFDF91CF911F910F9108951092130136
S113065010921201811106C08BE085BD87B78068B6
S113066087BF07C0813029F489E085BD87B78068DA
S113067087BF7894089587B78F7787BF85B58F77BD
S113068085BD0895CF93DF93EC018AEF83BD10926B
S113069013011092120180E0D9DF209112013091F0
S11306A013012C173D07C8F3E6DFDF91CF910895BE
S11306B01F920F920FB60F9211248F939F938091E4
S11306C012019091130101969093130180931201EA
S11306D09F918F910F900FBE0F901F9018950F93BD
S11306E01F93CF93DF93869F8001879F100D969F62
S11306F0100D1124C8010DD0EC01009721F0A801C0
S113070060E070E02DD1CE01DF91CF911F910F9168
S11307100895CF93DF938230910510F482E090E046
S1130720E0911601F091170120E030E0A0E0B0E084
S1130730309739F14081518148175907B8F048176B
S1130740590771F482819381109729F013969C9331
S11307508E9312972CC0909317018093160127C093
S11307602115310531F04217530718F0A901DB01B7
S113077001C0EF019A01BD01DF010280F381E02D88
S1130780D7CF21153105F9F0281B390B2430310559
S113079080F48A819B816115710521F0FB019383AB
S11307A0828304C09093170180931601FE01329650
S11307B044C0FE01E20FF31F81939193225031094B
S11307C0398328833AC02091140130911501232BD9
S11307D041F42091020130910301309315012093DB
S11307E0140120910001309101012115310541F4DA
S11307F02DB73EB74091040150910501241B350BE0
S1130800E0911401F0911501E217F307A0F42E1BF7
S11308103F0B2817390778F0AC014E5F5F4F241760
S1130820350748F04E0F5F1F509315014093140194
S11308308193919302C0E0E0F0E0CF01DF91CF918A
S11308400895CF93DF93009709F487C0FC01329792
S113085013821282C0911601D0911701209781F45E
S113086020813181280F391F809114019091150145
S11308708217930779F5F0931501E09314016DC085
S1130880DE0120E030E0AE17BF0750F412964D9120
S11308905C9113979D014115510509F1DA01F3CFDC
S11308A0B383A28340815181840F951F8A179B07CC
S11308B071F48D919C911197840F951F02969183E9
S11308C0808312968D919C91139793838283211533
S11308D0310529F4F0931701E09316013EC0D901C4
S11308E01396FC93EE9312974D915D91A40FB51F4F
S11308F0EA17FB0779F480819181840F951F029692
S1130900D90111969C938E938281938113969C9323
S11309108E931297E0E0F0E08A819B81009719F0B2
S1130920FE01EC01F9CFCE01029628813981820FB4
S1130930931F20911401309115012817390769F488
S1130940309729F4109217011092160102C01382F5
S11309501282D0931501C0931401DF91CF910895B1
S1130960DC0101C06D9341505040E0F70895F894C4
S1050970FFCFB3
S1130972000018012000415959595920544F4E5929
S105098200006F
S9030000FC
